:060000000C9451000C9469
:1000060000000C9400000C9400000C9400000C946A
:1000160000000C9400000C9400000C9400000C945A
:1000260000000C9400000C9400000C9400000C944A
:1000360000000C9400000C9400000C9400000C943A
:1000460000000C9400000C9400000C9400000C942A
:1000560000000C9400000C9400000C9400000C941A
:1000660000000C9400000C9400001027E8036400C4
:100076000A000100001000011000010000530500F5
:10008600000001002D4E414E00494E46000006007C
:10009600040082000100000288000000F894EE27A8
:1000A600ECBBF1E0FBBFEBBFE5BFE6BF8DE0A2E036
:1000B600BB27ED938A95E9F780E094E0A0E0B1E0F4
:1000C600ED930197E9F7E4E9F0E0859195910097C2
:1000D60061F0A591B59105901590BF01F0010590CD
:1000E6000D920197E1F7FB01F0CFEFEFEDBFE4E0F2
:1000F600EEBFC0E0D2E00C948700AA935D9BFECFD2
:10010600E881ECB921960895E0E8E0936100E0E02B
:10011600E0936100EABBEBBBE7BBE8BBE4BBE5BB36
:10012600E1BBE2BBE6B9E7B9EBB9E8E0EAB9E6E07C
:10013600E0BDE0E0E0BDEDE4E9B9A52DDEDF442455
:10014600EAE0E41528F0A42DD8DF740C4394F8CF28
:10015600A62DD3DFE62DE70D9E2EA92DCEDFAAEF25
:10016600B0E00E94B900E9CF0000FECF109639F04A
:1001760088EB9BE00197F1F7A8951197C9F70895C9
:00000001FF
